{"abi":[{"type":"constructor","inputs":[{"name":"tokenAddresses","type":"address[]","internalType":"address[]"},{"name":"priceFeedAddresses","type":"address[]","internalType":"address[]"},{"name":"dscAddress","type":"address","internalType":"address"}],"stateMutability":"nonpayable"},{"type":"function","name":"MINUTE","inputs":[],"outputs":[{"name":"","type":"uint256","internalType":"uint256"}],"stateMutability":"view"},{"type":"function","name":"YEAR","inputs":[],"outputs":[{"name":"","type":"uint256","internalType":"uint256"}],"stateMutability":"view"},{"type":"function","name":"burnDsc","inputs":[{"name":"amount","type":"uint256","internalType":"uint256"}],"outputs":[],"stateMutability":"nonpayable"},{"type":"function","name":"calculateHealthFactor","inputs":[{"name":"totalDscMinted","type":"uint256","internalType":"uint256"},{"name":"collateralValueInUsd","type":"uint256","internalType":"uint256"}],"outputs":[{"name":"","type":"uint256","internalType":"uint256"}],"stateMutability":"pure"},{"type":"function","name":"depositCollateral","inputs":[{"name":"tokenCollateralAddress","type":"address","internalType":"address"},{"name":"amountCollateral","type":"uint256","internalType":"uint256"}],"outputs":[],"stateMutability":"nonpayable"},{"type":"function","name":"depositCollateralAndBorrowWEther_1_Minute","inputs":[{"name":"tokenCollateralAddress","type":"address","internalType":"address"},{"name":"amountCollateral","type":"uint256","internalType":"uint256"},{"name":"amountWEther","type":"uint256","internalType":"uint256"}],"outputs":[],"stateMutability":"nonpayable"},{"type":"function","name":"depositCollateralAndBorrowWEther_1_Year","inputs":[{"name":"tokenCollateralAddress","type":"address","internalType":"address"},{"name":"amountCollateral","type":"uint256","internalType":"uint256"},{"name":"amountWEther","type":"uint256","internalType":"uint256"}],"outputs":[],"stateMutability":"nonpayable"},{"type":"function","name":"depositCollateralAndMintDsc","inputs":[{"name":"tokenCollateralAddress","type":"address","internalType":"address"},{"name":"amountCollateral","type":"uint256","internalType":"uint256"},{"name":"amountDscToMint","type":"uint256","internalType":"uint256"}],"outputs":[],"stateMutability":"nonpayable"},{"type":"function","name":"getAccountCollateralValue","inputs":[{"name":"user","type":"address","internalType":"address"}],"outputs":[{"name":"totalCollateralValueInUsd","type":"uint256","internalType":"uint256"}],"stateMutability":"view"},{"type":"function","name":"getAccountCollateralValueForBorrowEther","inputs":[{"name":"user","type":"address","internalType":"address"}],"outputs":[{"name":"totalCollateralValueInUsd","type":"uint256","internalType":"uint256"}],"stateMutability":"view"},{"type":"function","name":"getAccountInformation","inputs":[{"name":"user","type":"address","internalType":"address"}],"outputs":[{"name":"totalDscMinted","type":"uint256","internalType":"uint256"},{"name":"collateralValueInUsd","type":"uint256","internalType":"uint256"}],"stateMutability":"view"},{"type":"function","name":"getAdditionalFeedPrecision","inputs":[],"outputs":[{"name":"","type":"uint256","internalType":"uint256"}],"stateMutability":"pure"},{"type":"function","name":"getBalanceOfWEtherInContract","inputs":[],"outputs":[{"name":"","type":"uint256","internalType":"uint256"}],"stateMutability":"view"},{"type":"function","name":"getBorrowingFeeRate","inputs":[],"outputs":[{"name":"","type":"uint256","internalType":"uint256"}],"stateMutability":"view"},{"type":"function","name":"getCollateralBalanceOfUser","inputs":[{"name":"user","type":"address","internalType":"address"},{"name":"token","type":"address","internalType":"address"}],"outputs":[{"name":"","type":"uint256","internalType":"uint256"}],"stateMutability":"view"},{"type":"function","name":"getCollateralDepositedForBorrowEther","inputs":[{"name":"user","type":"address","internalType":"address"},{"name":"token","type":"address","internalType":"address"}],"outputs":[{"name":"","type":"uint256","internalType":"uint256"}],"stateMutability":"view"},{"type":"function","name":"getCollateralTokenPriceFeed","inputs":[{"name":"token","type":"address","internalType":"address"}],"outputs":[{"name":"","type":"address","internalType":"address"}],"stateMutability":"view"},{"type":"function","name":"getCollateralTokens","inputs":[],"outputs":[{"name":"","type":"address[]","internalType":"address[]"}],"stateMutability":"view"},{"type":"function","name":"getDSCMintedForInterest","inputs":[{"name":"user","type":"address","internalType":"address"}],"outputs":[{"name":"","type":"uint256","internalType":"uint256"}],"stateMutability":"view"},{"type":"function","name":"getDsc","inputs":[],"outputs":[{"name":"","type":"address","internalType":"address"}],"stateMutability":"view"},{"type":"function","name":"getEndTimeBorrowed","inputs":[{"name":"user","type":"address","internalType":"address"}],"outputs":[{"name":"","type":"uint256","internalType":"uint256"}],"stateMutability":"view"},{"type":"function","name":"getEndTimeSaved","inputs":[{"name":"user","type":"address","internalType":"address"}],"outputs":[{"name":"","type":"uint256","internalType":"uint256"}],"stateMutability":"view"},{"type":"function","name":"getHealthFactor","inputs":[{"name":"user","type":"address","internalType":"address"}],"outputs":[{"name":"","type":"uint256","internalType":"uint256"}],"stateMutability":"view"},{"type":"function","name":"getHealthFactorForBorrowWEther","inputs":[{"name":"user","type":"address","internalType":"address"}],"outputs":[{"name":"","type":"uint256","internalType":"uint256"}],"stateMutability":"view"},{"type":"function","name":"getInterestingRate","inputs":[],"outputs":[{"name":"","type":"uint256","internalType":"uint256"}],"stateMutability":"view"},{"type":"function","name":"getLiquidationBonus","inputs":[],"outputs":[{"name":"","type":"uint256","internalType":"uint256"}],"stateMutability":"pure"},{"type":"function","name":"getLiquidationPrecision","inputs":[],"outputs":[{"name":"","type":"uint256","internalType":"uint256"}],"stateMutability":"pure"},{"type":"function","name":"getLiquidationThreshold","inputs":[],"outputs":[{"name":"","type":"uint256","internalType":"uint256"}],"stateMutability":"pure"},{"type":"function","name":"getMinHealthFactor","inputs":[],"outputs":[{"name":"","type":"uint256","internalType":"uint256"}],"stateMutability":"pure"},{"type":"function","name":"getPrecision","inputs":[],"outputs":[{"name":"","type":"uint256","internalType":"uint256"}],"stateMutability":"pure"},{"type":"function","name":"getTokenAmountFromUsd","inputs":[{"name":"token","type":"address","internalType":"address"},{"name":"usdAmountInWei","type":"uint256","internalType":"uint256"}],"outputs":[{"name":"","type":"uint256","internalType":"uint256"}],"stateMutability":"view"},{"type":"function","name":"getUsdValue","inputs":[{"name":"token","type":"address","internalType":"address"},{"name":"amount","type":"uint256","internalType":"uint256"}],"outputs":[{"name":"","type":"uint256","internalType":"uint256"}],"stateMutability":"view"},{"type":"function","name":"getUtilisationRate","inputs":[],"outputs":[{"name":"","type":"uint256","internalType":"uint256"}],"stateMutability":"view"},{"type":"function","name":"getWEtherBorrowed","inputs":[{"name":"user","type":"address","internalType":"address"}],"outputs":[{"name":"","type":"uint256","internalType":"uint256"}],"stateMutability":"view"},{"type":"function","name":"getWEtherBorrowedInUsd","inputs":[{"name":"user","type":"address","internalType":"address"}],"outputs":[{"name":"","type":"uint256","internalType":"uint256"}],"stateMutability":"view"},{"type":"function","name":"getWEtherSaved","inputs":[{"name":"user","type":"address","internalType":"address"}],"outputs":[{"name":"","type":"uint256","internalType":"uint256"}],"stateMutability":"view"},{"type":"function","name":"liquidate","inputs":[{"name":"collateral","type":"address","internalType":"address"},{"name":"user","type":"address","internalType":"address"},{"name":"debtToCover","type":"uint256","internalType":"uint256"}],"outputs":[],"stateMutability":"nonpayable"},{"type":"function","name":"liquidateForBorrowedWEther","inputs":[{"name":"collateralDeposited","type":"address","internalType":"address"},{"name":"user","type":"address","internalType":"address"}],"outputs":[],"stateMutability":"nonpayable"},{"type":"function","name":"mintDsc","inputs":[{"name":"amountDscToMint","type":"uint256","internalType":"uint256"}],"outputs":[],"stateMutability":"nonpayable"},{"type":"function","name":"mintDscForOwner","inputs":[{"name":"amountDsc","type":"uint256","internalType":"uint256"}],"outputs":[],"stateMutability":"nonpayable"},{"type":"function","name":"redeemAllCollateralAndReturnWEtherAfter_1_Minute","inputs":[{"name":"tokenCollateralAddress","type":"address","internalType":"address"}],"outputs":[],"stateMutability":"nonpayable"},{"type":"function","name":"redeemAllCollateralAndReturnWEtherAfter_1_Year","inputs":[{"name":"tokenCollateralAddress","type":"address","internalType":"address"}],"outputs":[],"stateMutability":"nonpayable"},{"type":"function","name":"redeemCollateral","inputs":[{"name":"tokenCollateralAddress","type":"address","internalType":"address"},{"name":"amountCollateral","type":"uint256","internalType":"uint256"}],"outputs":[],"stateMutability":"nonpayable"},{"type":"function","name":"redeemCollateralForDsc","inputs":[{"name":"tokenCollateralAddress","type":"address","internalType":"address"},{"name":"amountCollateral","type":"uint256","internalType":"uint256"},{"name":"amountDscToBurn","type":"uint256","internalType":"uint256"}],"outputs":[],"stateMutability":"nonpayable"},{"type":"function","name":"redeemPartOfCollateralAndReturnWEtherBefore_1_Minute","inputs":[{"name":"tokenCollateralAddress","type":"address","internalType":"address"},{"name":"amountCollateral","type":"uint256","internalType":"uint256"},{"name":"amountWEther","type":"uint256","internalType":"uint256"}],"outputs":[],"stateMutability":"nonpayable"},{"type":"function","name":"redeemPartOfCollateralAndReturnWEtherBefore_1_Year","inputs":[{"name":"tokenCollateralAddress","type":"address","internalType":"address"},{"name":"amountCollateral","type":"uint256","internalType":"uint256"},{"name":"amountWEther","type":"uint256","internalType":"uint256"}],"outputs":[],"stateMutability":"nonpayable"},{"type":"function","name":"redeemSavedWEtherAfter_1_MinuteAndMintDscForInterest","inputs":[{"name":"amount","type":"uint256","internalType":"uint256"}],"outputs":[],"stateMutability":"nonpayable"},{"type":"function","name":"redeemSavedWEtherAfter_1_YearAndMintDscForInterest","inputs":[{"name":"amount","type":"uint256","internalType":"uint256"}],"outputs":[],"stateMutability":"nonpayable"},{"type":"function","name":"savingWEtherFor_1_Minute","inputs":[{"name":"amount","type":"uint256","internalType":"uint256"}],"outputs":[],"stateMutability":"nonpayable"},{"type":"function","name":"savingWEtherFor_1_Year","inputs":[{"name":"amount","type":"uint256","internalType":"uint256"}],"outputs":[],"stateMutability":"nonpayable"},{"type":"event","name":"CollateralDeposited","inputs":[{"name":"user","type":"address","indexed":true,"internalType":"address"},{"name":"token","type":"address","indexed":true,"internalType":"address"},{"name":"amount","type":"uint256","indexed":true,"internalType":"uint256"}],"anonymous":false},{"type":"event","name":"CollateralRedeemed","inputs":[{"name":"redeemFrom","type":"address","indexed":true,"internalType":"address"},{"name":"redeemTo","type":"address","indexed":true,"internalType":"address"},{"name":"token","type":"address","indexed":false,"internalType":"address"},{"name":"amount","type":"uint256","indexed":false,"internalType":"uint256"}],"anonymous":false},{"type":"error","name":"DSCEngine__BreaksHealthFactor","inputs":[{"name":"healthFactorValue","type":"uint256","internalType":"uint256"}]},{"type":"error","name":"DSCEngine__HealthFactorNotImproved","inputs":[]},{"type":"error","name":"DSCEngine__HealthFactorOk","inputs":[]},{"type":"error","name":"DSCEngine__MintFailed","inputs":[]},{"type":"error","name":"DSCEngine__NeedsMoreThanZero","inputs":[]},{"type":"error","name":"DSCEngine__TokenAddressesAndPriceFeedAddressesAmountsDontMatch","inputs":[]},{"type":"error","name":"DSCEngine__TokenNotAllowed","inputs":[{"name":"token","type":"address","internalType":"address"}]},{"type":"error","name":"DSCEngine__TransferFailed","inputs":[]}],"bytecode":{"object":"0x60a0604052600580546001600160a01b031990811673dd13e55209fd76afe204dbda4007c227904f0a81179091556000600e819055600f556010805490911673714a4f22f5473e7186fc3209cc5fbfa6ed46577a1790553480156200006357600080fd5b50604051620029493803806200294983398101604081905262000086916200029a565b60016000558151835114620000ae57604051631d8bb3e760e11b815260040160405180910390fd5b60005b8351811015620001a457828181518110620000d057620000d062000316565b602002602001015160016000868481518110620000f157620000f162000316565b60200260200101516001600160a01b03166001600160a01b0316815260200190815260200160002060006101000a8154816001600160a01b0302191690836001600160a01b03160217905550600484828151811062000154576200015462000316565b60209081029190910181015182546001810184556000938452919092200180546001600160a01b0319166001600160a01b03909216919091179055806200019b816200032c565b915050620000b1565b506001600160a01b031660805250620003549050565b634e487b7160e01b600052604160045260246000fd5b80516001600160a01b0381168114620001e857600080fd5b919050565b600082601f830112620001ff57600080fd5b815160206001600160401b03808311156200021e576200021e620001ba565b8260051b604051601f19603f83011681018181108482111715620002465762000246620001ba565b6040529384528581018301938381019250878511156200026557600080fd5b83870191505b848210156200028f576200027f82620001d0565b835291830191908301906200026b565b979650505050505050565b600080600060608486031215620002b057600080fd5b83516001600160401b0380821115620002c857600080fd5b620002d687838801620001ed565b94506020860151915080821115620002ed57600080fd5b50620002fc86828701620001ed565b9250506200030d60408501620001d0565b90509250925092565b634e487b7160e01b600052603260045260246000fd5b6000600182016200034d57634e487b7160e01b600052601160045260246000fd5b5060010190565b6080516125b6620003936000396000818161068701528181610f14015281816116d80152818161178a01528181611de60152611eb101526125b66000f3fe608060405234801561001057600080fd5b50600436106102d65760003560e01c80638f63d66711610182578063d3958b6e116100e9578063e2f62ca0116100a2578063e90db8a31161007c578063e90db8a3146106d9578063f419ea9c146106ec578063f6876608146106ff578063fe6bcd7c1461071257600080fd5b8063e2f62ca0146106ab578063e520df2e146106b3578063e6fb7f82146106c657600080fd5b8063d3958b6e1461062e578063d464760314610641578063d60fe6ad14610301578063da74a26a1461066a578063dd82ac1814610672578063deb8e0181461068557600080fd5b8063b20020ae1161013b578063b20020ae146105a4578063b58eb63f146105b7578063bb0351ed146105cc578063c660d112146105df578063c9b7c327146105f2578063cad548601461060557600080fd5b80638f63d6671461054d578063942039bd146105585780639670c0bc1461053f5780639acd81b31461056b578063a5d5db0c1461057e578063afea2e481461059157600080fd5b8063519899c3116102415780637816a716116101fa5780637d1a4450116101d45780637d1a44501461050e578063839145401461052157806389a6c2361461052c5780638c1ae6c81461053f57600080fd5b80637816a716146104b55780637be564fc146104de5780637c06d3331461050657600080fd5b8063519899c31461041f5780635810c1fd1461043257806359aa9e72146104455780635e941a8a1461044c57806362ca1206146104855780636c8102c0146104ae57600080fd5b806326c013031161029357806326c013031461039e57806327646b81146103b15780632b950b15146103b957806331e92b83146103cc5780634ae9b8bc146104055780634fbb80b01461040c57600080fd5b806301f72884146102db57806306b87428146103015780630f4081101461031657806311aacaed1461033f578063198a8f65146103525780631c08adda1461035a575b600080fd5b6102ee6102e93660046121e1565b610725565b6040519081526020015b60405180910390f35b61031461030f36600461221f565b61073a565b005b6102ee610324366004612252565b6001600160a01b031660009081526009602052604090205490565b61031461034d366004612252565b61074c565b6102ee603c81565b610386610368366004612252565b6001600160a01b039081166000908152600160205260409020541690565b6040516001600160a01b0390911681526020016102f8565b6103146103ac36600461226d565b610790565b6102ee610882565b6102ee6103c7366004612252565b6108a8565b6102ee6103da3660046122a9565b6001600160a01b03918216600090815260026020908152604080832093909416825291909152205490565b60326102ee565b61031461041a36600461221f565b6108b3565b61031461042d3660046122dc565b6108d9565b6103146104403660046122dc565b6109c1565b600a6102ee565b6102ee61045a3660046122a9565b6001600160a01b039182166000908152600d6020908152604080832093909416825291909152205490565b6102ee610493366004612252565b6001600160a01b03166000908152600a602052604090205490565b60646102ee565b6102ee6104c3366004612252565b6001600160a01b03166000908152600b602052604090205490565b6104f16104ec366004612252565b6109ca565b604080519283526020830191909152016102f8565b6102ee6109df565b6102ee61051c366004612252565b610a0a565b6102ee6301e1338081565b61031461053a3660046122dc565b610a92565b670de0b6b3a76400006102ee565b6402540be4006102ee565b6103146105663660046122dc565b610ab9565b6103146105793660046122f5565b610ac4565b61031461058c3660046122f5565b610b53565b6102ee61059f3660046122f5565b610cd4565b6103146105b236600461221f565b610da4565b6105bf610db2565b6040516102f8919061231f565b6102ee6105da366004612252565b610e14565b6102ee6105ed3660046122f5565b610e96565b6103146106003660046122dc565b610ea2565b6102ee610613366004612252565b6001600160a01b031660009081526006602052604090205490565b61031461063c366004612252565b610fc2565b6102ee61064f366004612252565b6001600160a01b031660009081526007602052604090205490565b6102ee610ff1565b6103146106803660046122a9565b610ffb565b7f0000000000000000000000000000000000000000000000000000000000000000610386565b6102ee611041565b6102ee6106c1366004612252565b61104b565b6103146106d43660046122dc565b611075565b6103146106e736600461221f565b6110f8565b6103146106fa36600461221f565b61110b565b61031461070d3660046122dc565b611199565b6102ee610720366004612252565b6111cf565b600061073183836111da565b90505b92915050565b610747838383333361122d565b505050565b336000908152600b60205260409020544210156107845760405162461bcd60e51b815260040161077b9061236c565b60405180910390fd5b61078d816114bb565b50565b80806000036107b25760405163cb1d3f7d60e01b815260040160405180910390fd5b6107ba6114fd565b60006107c584611556565b9050670de0b6b3a764000081106107ef5760405163032c072f60e41b815260040160405180910390fd5b60006107fb8685610cd4565b90506000606461080c600a846123c8565b61081691906123df565b905061082d876108268385612401565b8833611572565b610838858733611691565b600061084387611556565b9050838111610865576040516303e141b160e51b815260040160405180910390fd5b61086e336117f4565b5050505061087c6001600055565b50505050565b6000606461088e61182d565b6108999060696123c8565b6108a391906123df565b905090565b600061073482611903565b6108be603c42612401565b336000908152600b6020526040902055610747838383611911565b80806000036108fb5760405163cb1d3f7d60e01b815260040160405180910390fd5b6005546001600160a01b039081166000818152600160205260409020549091166109435760405163cf39359560e01b81526001600160a01b038216600482015260240161077b565b3360009081526008602090815260408083205460079092529091205442101561097e5760405162461bcd60e51b815260040161077b90612414565b61098784611b4d565b60055461087c90620186a09083906109a8906001600160a01b031688611ce9565b6109b291906123c8565b6109bc91906123df565b611da8565b61078d81611e85565b6000806109d683611f48565b91509150915091565b600080600e546064600f546109f491906123c8565b610a00906103e86123c8565b61073491906123df565b6000805b600454811015610a8c57600060048281548110610a2d57610a2d61245c565b60009182526020808320909101546001600160a01b03878116845260028352604080852091909216808552925290912054909150610a6b8282611ce9565b610a759085612401565b935050508080610a8490612472565b915050610a0e565b50919050565b610aa06301e1338042612401565b3360009081526007602052604090205561078d81611f72565b610aa0603c42612401565b8080600003610ae65760405163cb1d3f7d60e01b815260040160405180910390fd5b610aee6114fd565b6001600160a01b03808416600090815260016020526040902054849116610b335760405163cf39359560e01b81526001600160a01b038216600482015260240161077b565b610b3f84843333611572565b610b48336117f4565b506107476001600055565b8080600003610b755760405163cb1d3f7d60e01b815260040160405180910390fd5b610b7d6114fd565b6001600160a01b03808416600090815260016020526040902054849116610bc25760405163cf39359560e01b81526001600160a01b038216600482015260240161077b565b3360009081526002602090815260408083206001600160a01b038816845290915281208054859290610bf5908490612401565b909155505060405183906001600160a01b0386169033907ff1c0dd7e9b98bbff859029005ef89b127af049cd18df1a8d79f0b7e019911e5690600090a46040516323b872dd60e01b81526000906001600160a01b038616906323b872dd90610c659033903090899060040161248b565b6020604051808303816000875af1158015610c84573d6000803e3d6000fd5b505050506040513d601f19601f82011682018060405250810190610ca891906124af565b905080610cc857604051634dc34d1760e01b815260040160405180910390fd5b50506107476001600055565b6001600160a01b038281166000908152600160205260408082205490516315d0e4b560e11b81529216600483018190529091829073__$1f06ac8d622ce42796cee98ba1044ce165$__90632ba1c96a9060240160a060405180830381865af4158015610d44573d6000803e3d6000fd5b505050506040513d601f19601f82011682018060405250810190610d6891906124eb565b5050509150506402540be40081610d7f91906123c8565b610d91670de0b6b3a7640000866123c8565b610d9b91906123df565b95945050505050565b6108be6301e1338042612401565b60606004805480602002602001604051908101604052809291908181526020018280548015610e0a57602002820191906000526020600020905b81546001600160a01b03168152600190910190602001808311610dec575b5050505050905090565b6000805b600454811015610a8c57600060048281548110610e3757610e3761245c565b60009182526020808320909101546001600160a01b038781168452600d8352604080852091909216808552925290912054909150610e758282611ce9565b610e7f9085612401565b935050508080610e8e90612472565b915050610e18565b60006107318383611ce9565b8080600003610ec45760405163cb1d3f7d60e01b815260040160405180910390fd5b610ecc6114fd565b3360009081526003602052604081208054849290610eeb908490612401565b90915550610efa9050336117f4565b6040516340c10f1960e01b81526000906001600160a01b037f000000000000000000000000000000000000000000000000000000000000000016906340c10f1990610f4b903390879060040161253b565b6020604051808303816000875af1158015610f6a573d6000803e3d6000fd5b505050506040513d601f19601f82011682018060405250810190610f8e91906124af565b9050600181151514610fb3576040516330eb0fc960e01b815260040160405180910390fd5b50610fbe6001600055565b5050565b336000908152600b60205260409020544210156107845760405162461bcd60e51b815260040161077b90612414565b60006108a361182d565b6110036114fd565b600061100e82611903565b9050670de0b6b3a764000081106110385760405163032c072f60e41b815260040160405180910390fd5b610fb3836114bb565b60006108a36120a8565b6005546001600160a01b038281166000908152600a60205260408120549092610734921690611ce9565b80806000036110975760405163cb1d3f7d60e01b815260040160405180910390fd5b6005546001600160a01b039081166000818152600160205260409020549091166110df5760405163cf39359560e01b81526001600160a01b038216600482015260240161077b565b3360009081526008602052604090205461098784612115565b6111028383610b53565b61074781610ea2565b818060000361112d5760405163cb1d3f7d60e01b815260040160405180910390fd5b6001600160a01b038085166000908152600160205260409020548591166111725760405163cf39359560e01b81526001600160a01b038216600482015260240161077b565b61117d833333611691565b61118985853333611572565b611192336117f4565b5050505050565b80806000036111bb5760405163cb1d3f7d60e01b815260040160405180910390fd5b6111c6823333611691565b610fbe336117f4565b600061073482611556565b6000826000036111ed5750600019610734565b600060646111fc6032856123c8565b61120691906123df565b90508361121b670de0b6b3a7640000836123c8565b61122591906123df565b949350505050565b838060000361124f5760405163cb1d3f7d60e01b815260040160405180910390fd5b6112576114fd565b6005546001600160a01b0390811660008181526001602052604090205490911661129f5760405163cf39359560e01b81526001600160a01b038216600482015260240161077b565b6001600160a01b0384166000908152600a6020526040812080548792906112c7908490612554565b92505081905550826001600160a01b0316846001600160a01b03167fb292db12b8dfa23b760ee5e3bd1d3be184cd8f0eeeacd27ce120d4de4e4721f6898960405161131392919061253b565b60405180910390a36001600160a01b038085166000908152600d60209081526040808320938b1683529290529081208054889290611352908490612554565b9250508190555084600f600082825461136b9190612554565b9091555061137a9050836121bf565b6005546040516323b872dd60e01b81526000916001600160a01b0316906323b872dd906113af90889030908b9060040161248b565b6020604051808303816000875af11580156113ce573d6000803e3d6000fd5b505050506040513d601f19601f820116820180604052508101906113f291906124af565b90508061141257604051634dc34d1760e01b815260040160405180910390fd5b60405163a9059cbb60e01b81526000906001600160a01b038a169063a9059cbb906114439088908c9060040161253b565b6020604051808303816000875af1158015611462573d6000803e3d6000fd5b505050506040513d601f19601f8201168201806040525081019061148691906124af565b9050806114a657604051634dc34d1760e01b815260040160405180910390fd5b5050506114b36001600055565b505050505050565b336000818152600d602090815260408083206001600160a01b0386168452825280832054848452600a909252909120549091610747908490849084908061122d565b60026000540361154f5760405162461bcd60e51b815260206004820152601f60248201527f5265656e7472616e637947756172643a207265656e7472616e742063616c6c00604482015260640161077b565b6002600055565b600080600061156484611f48565b9150915061122582826111da565b6001600160a01b038083166000908152600260209081526040808320938816835292905290812080548592906115a9908490612554565b92505081905550806001600160a01b0316826001600160a01b03167fb292db12b8dfa23b760ee5e3bd1d3be184cd8f0eeeacd27ce120d4de4e4721f686866040516115f592919061253b565b60405180910390a360405163a9059cbb60e01b81526000906001600160a01b0386169063a9059cbb9061162e908590889060040161253b565b6020604051808303816000875af115801561164d573d6000803e3d6000fd5b505050506040513d601f19601f8201168201806040525081019061167191906124af565b90508061119257604051634dc34d1760e01b815260040160405180910390fd5b6001600160a01b038216600090815260036020526040812080548592906116b9908490612554565b90915550506040516323b872dd60e01b81526000906001600160a01b037f000000000000000000000000000000000000000000000000000000000000000016906323b872dd906117119085903090899060040161248b565b6020604051808303816000875af1158015611730573d6000803e3d6000fd5b505050506040513d601f19601f8201168201806040525081019061175491906124af565b90508061177457604051634dc34d1760e01b815260040160405180910390fd5b604051630852cd8d60e31b8152600481018590527f00000000000000000000000000000000000000000000000000000000000000006001600160a01b0316906342966c6890602401600060405180830381600087803b1580156117d657600080fd5b505af11580156117ea573d6000803e3d6000fd5b5050505050505050565b60006117ff82611556565b9050670de0b6b3a7640000811015610fbe5760405163e580cc6160e01b81526004810182905260240161077b565b600080600e546064600f5461184291906123c8565b61184e906103e86123c8565b61185891906123df565b905061186760506103e86123c8565b81116118a4576000600561187c6050846123df565b61188691906123c8565b61189360016103e86123c8565b61189d9190612401565b9392505050565b6000600a6118b460506064612554565b6118c160506103e86123c8565b6118cb9085612554565b6118d591906123df565b6118df91906123c8565b6118ec60056103e86123c8565b6118f960016103e86123c8565b6118939190612401565b6000806000611564846121ca565b605a600e54606461192291906123c8565b61192c91906123df565b81106119895760405162461bcd60e51b815260206004820152602660248201527f445343456e67696e653a204e6f7420656e6f7567682057457468657220696e20604482015265736176696e6760d01b606482015260840161077b565b600061199361182d565b90506000620186a06119a58382612401565b6119af90846123c8565b6119b991906123df565b336000908152600c602052604090208190559050620186a06119db8282612554565b6119e590856123c8565b6119ef91906123df565b336000908152600a602052604081208054909190611a0e908490612401565b9091555050336000908152600d602090815260408083206001600160a01b038916845290915281208054869290611a46908490612401565b90915550620186a09050611a5a8282612554565b611a6490856123c8565b611a6e91906123df565b600f6000828254611a7f9190612401565b90915550611a8e9050336121bf565b611a988585610b53565b611aa1336117f4565b6005546000906001600160a01b031663a9059cbb336064611ac388605e6123c8565b611acd91906123df565b6040518363ffffffff1660e01b8152600401611aea92919061253b565b6020604051808303816000875af1158015611b09573d6000803e3d6000fd5b505050506040513d601f19601f82011682018060405250810190611b2d91906124af565b9050806114b357604051634dc34d1760e01b815260040160405180910390fd5b8080600003611b6f5760405163cb1d3f7d60e01b815260040160405180910390fd5b611b776114fd565b6005546001600160a01b03908116600081815260016020526040902054909116611bbf5760405163cf39359560e01b81526001600160a01b038216600482015260240161077b565b3360009081526006602052604081208054859290611bde908490612554565b9250508190555082600e6000828254611bf79190612554565b9091555050600554604051339182917fb292db12b8dfa23b760ee5e3bd1d3be184cd8f0eeeacd27ce120d4de4e4721f691611c3f916001600160a01b0390911690889061253b565b60405180910390a360055460405163a9059cbb60e01b81526000916001600160a01b03169063a9059cbb90611c7a903390889060040161253b565b6020604051808303816000875af1158015611c99573d6000803e3d6000fd5b505050506040513d601f19601f82011682018060405250810190611cbd91906124af565b905080611cdd57604051634dc34d1760e01b815260040160405180910390fd5b5050610fbe6001600055565b6001600160a01b038281166000908152600160205260408082205490516315d0e4b560e11b81529216600483018190529091829073__$1f06ac8d622ce42796cee98ba1044ce165$__90632ba1c96a9060240160a060405180830381865af4158015611d59573d6000803e3d6000fd5b505050506040513d601f19601f82011682018060405250810190611d7d91906124eb565b505050915050670de0b6b3a7640000846402540be40083611d9e91906123c8565b610d9191906123c8565b3360009081526009602052604081208054839290611dc7908490612401565b90915550506040516340c10f1960e01b81526000906001600160a01b037f000000000000000000000000000000000000000000000000000000000000000016906340c10f1990611e1d903390869060040161253b565b6020604051808303816000875af1158015611e3c573d6000803e3d6000fd5b505050506040513d601f19601f82011682018060405250810190611e6091906124af565b9050600181151514610fbe576040516330eb0fc960e01b815260040160405180910390fd5b6010546001600160a01b03163303611f2f576010546040516340c10f1960e01b81526001600160a01b037f00000000000000000000000000000000000000000000000000000000000000008116926340c10f1992611eec929190911690859060040161253b565b6020604051808303816000875af1158015611f0b573d6000803e3d6000fd5b505050506040513d601f19601f82011682018060405250810190610fbe91906124af565b6040516330eb0fc960e01b815260040160405180910390fd5b6001600160a01b03811660009081526003602052604081205490611f6b83610a0a565b9050915091565b8080600003611f945760405163cb1d3f7d60e01b815260040160405180910390fd5b611f9c6114fd565b6005546001600160a01b03908116600081815260016020526040902054909116611fe45760405163cf39359560e01b81526001600160a01b038216600482015260240161077b565b3360009081526006602052604081208054859290612003908490612401565b9250508190555082600e600082825461201c9190612401565b9091555061202a905061182d565b3360008181526008602052604080822093909355600554925186936001600160a01b031692917ff1c0dd7e9b98bbff859029005ef89b127af049cd18df1a8d79f0b7e019911e5691a46005546040516323b872dd60e01b81526000916001600160a01b0316906323b872dd90611c7a9033903090899060040161248b565b6005546040516370a0823160e01b81523060048201526000916001600160a01b0316906370a0823190602401602060405180830381865afa1580156120f1573d6000803e3d6000fd5b505050506040513d601f19601f820116820180604052508101906108a39190612567565b80806000036121375760405163cb1d3f7d60e01b815260040160405180910390fd5b61213f6114fd565b6005546001600160a01b039081166000818152600160205260409020549091166121875760405163cf39359560e01b81526001600160a01b038216600482015260240161077b565b336000908152600760205260409020544210156121b65760405162461bcd60e51b815260040161077b9061236c565b610fb383611b4d565b60006117ff82611903565b6000806121d68361104b565b9150611f6b83610e14565b600080604083850312156121f457600080fd5b50508035926020909101359150565b80356001600160a01b038116811461221a57600080fd5b919050565b60008060006060848603121561223457600080fd5b61223d84612203565b95602085013595506040909401359392505050565b60006020828403121561226457600080fd5b61073182612203565b60008060006060848603121561228257600080fd5b61228b84612203565b925061229960208501612203565b9150604084013590509250925092565b600080604083850312156122bc57600080fd5b6122c583612203565b91506122d360208401612203565b90509250929050565b6000602082840312156122ee57600080fd5b5035919050565b6000806040838503121561230857600080fd5b61231183612203565b946020939093013593505050565b6020808252825182820181905260009190848201906040850190845b818110156123605783516001600160a01b03168352928401929184019160010161233b565b50909695505050505050565b60208082526026908201527f445343456e67696e653a2043616e6e6f742072656465656d206265666f72652060408201526518903cb2b0b960d11b606082015260800190565b634e487b7160e01b600052601160045260246000fd5b8082028115828204841417610734576107346123b2565b6000826123fc57634e487b7160e01b600052601260045260246000fd5b500490565b80820180821115610734576107346123b2565b60208082526028908201527f445343456e67696e653a2043616e6e6f742072656465656d206265666f72652060408201526731206d696e75746560c01b606082015260800190565b634e487b7160e01b600052603260045260246000fd5b600060018201612484576124846123b2565b5060010190565b6001600160a01b039384168152919092166020820152604081019190915260600190565b6000602082840312156124c157600080fd5b8151801515811461189d57600080fd5b805169ffffffffffffffffffff8116811461221a57600080fd5b600080600080600060a0868803121561250357600080fd5b61250c866124d1565b945060208601519350604086015192506060860151915061252f608087016124d1565b90509295509295909350565b6001600160a01b03929092168252602082015260400190565b81810381811115610734576107346123b2565b60006020828403121561257957600080fd5b505191905056fea2646970667358221220d14ba60a7af6f703b7fa1089cfb06ee0275c1dcf3ab55b8a7544f4b015ba757b64736f6c63430008130033","linkReferences":{"src/libraries/OracleLib.sol":{"OracleLib":[{"start":4253,"length":20},{"start":8370,"length":20}]}}},"methodIdentifiers":{"MINUTE()":"198a8f65","YEAR()":"83914540","burnDsc(uint256)":"f6876608","calculateHealthFactor(uint256,uint256)":"01f72884","depositCollateral(address,uint256)":"a5d5db0c","depositCollateralAndBorrowWEther_1_Minute(address,uint256,uint256)":"4fbb80b0","depositCollateralAndBorrowWEther_1_Year(address,uint256,uint256)":"b20020ae","depositCollateralAndMintDsc(address,uint256,uint256)":"e90db8a3","getAccountCollateralValue(address)":"7d1a4450","getAccountCollateralValueForBorrowEther(address)":"bb0351ed","getAccountInformation(address)":"7be564fc","getAdditionalFeedPrecision()":"8f63d667","getBalanceOfWEtherInContract()":"e2f62ca0","getBorrowingFeeRate()":"27646b81","getCollateralBalanceOfUser(address,address)":"31e92b83","getCollateralDepositedForBorrowEther(address,address)":"5e941a8a","getCollateralTokenPriceFeed(address)":"1c08adda","getCollateralTokens()":"b58eb63f","getDSCMintedForInterest(address)":"0f408110","getDsc()":"deb8e018","getEndTimeBorrowed(address)":"7816a716","getEndTimeSaved(address)":"d4647603","getHealthFactor(address)":"fe6bcd7c","getHealthFactorForBorrowWEther(address)":"2b950b15","getInterestingRate()":"da74a26a","getLiquidationBonus()":"59aa9e72","getLiquidationPrecision()":"6c8102c0","getLiquidationThreshold()":"4ae9b8bc","getMinHealthFactor()":"8c1ae6c8","getPrecision()":"9670c0bc","getTokenAmountFromUsd(address,uint256)":"afea2e48","getUsdValue(address,uint256)":"c660d112","getUtilisationRate()":"7c06d333","getWEtherBorrowed(address)":"62ca1206","getWEtherBorrowedInUsd(address)":"e520df2e","getWEtherSaved(address)":"cad54860","liquidate(address,address,uint256)":"26c01303","liquidateForBorrowedWEther(address,address)":"dd82ac18","mintDsc(uint256)":"c9b7c327","mintDscForOwner(uint256)":"5810c1fd","redeemAllCollateralAndReturnWEtherAfter_1_Minute(address)":"d3958b6e","redeemAllCollateralAndReturnWEtherAfter_1_Year(address)":"11aacaed","redeemCollateral(address,uint256)":"9acd81b3","redeemCollateralForDsc(address,uint256,uint256)":"f419ea9c","redeemPartOfCollateralAndReturnWEtherBefore_1_Minute(address,uint256,uint256)":"d60fe6ad","redeemPartOfCollateralAndReturnWEtherBefore_1_Year(address,uint256,uint256)":"06b87428","redeemSavedWEtherAfter_1_MinuteAndMintDscForInterest(uint256)":"519899c3","redeemSavedWEtherAfter_1_YearAndMintDscForInterest(uint256)":"e6fb7f82","savingWEtherFor_1_Minute(uint256)":"942039bd","savingWEtherFor_1_Year(uint256)":"89a6c236"},"id":30}