{"abi":[{"type":"constructor","inputs":[{"name":"tokenAddresses","type":"address[]","internalType":"address[]"},{"name":"priceFeedAddresses","type":"address[]","internalType":"address[]"},{"name":"dscAddress","type":"address","internalType":"address"}],"stateMutability":"nonpayable"},{"type":"function","name":"MINUTE","inputs":[],"outputs":[{"name":"","type":"uint256","internalType":"uint256"}],"stateMutability":"view"},{"type":"function","name":"YEAR","inputs":[],"outputs":[{"name":"","type":"uint256","internalType":"uint256"}],"stateMutability":"view"},{"type":"function","name":"burnDsc","inputs":[{"name":"amount","type":"uint256","internalType":"uint256"}],"outputs":[],"stateMutability":"nonpayable"},{"type":"function","name":"calculateHealthFactor","inputs":[{"name":"totalDscMinted","type":"uint256","internalType":"uint256"},{"name":"collateralValueInUsd","type":"uint256","internalType":"uint256"}],"outputs":[{"name":"","type":"uint256","internalType":"uint256"}],"stateMutability":"pure"},{"type":"function","name":"depositCollateral","inputs":[{"name":"tokenCollateralAddress","type":"address","internalType":"address"},{"name":"amountCollateral","type":"uint256","internalType":"uint256"}],"outputs":[],"stateMutability":"nonpayable"},{"type":"function","name":"depositCollateralAndBorrowWEther_1_Minute","inputs":[{"name":"tokenCollateralAddress","type":"address","internalType":"address"},{"name":"amountCollateral","type":"uint256","internalType":"uint256"},{"name":"amountWEther","type":"uint256","internalType":"uint256"}],"outputs":[],"stateMutability":"nonpayable"},{"type":"function","name":"depositCollateralAndBorrowWEther_1_Year","inputs":[{"name":"tokenCollateralAddress","type":"address","internalType":"address"},{"name":"amountCollateral","type":"uint256","internalType":"uint256"},{"name":"amountWEther","type":"uint256","internalType":"uint256"}],"outputs":[],"stateMutability":"nonpayable"},{"type":"function","name":"depositCollateralAndMintDsc","inputs":[{"name":"tokenCollateralAddress","type":"address","internalType":"address"},{"name":"amountCollateral","type":"uint256","internalType":"uint256"},{"name":"amountDscToMint","type":"uint256","internalType":"uint256"}],"outputs":[],"stateMutability":"nonpayable"},{"type":"function","name":"getAccountCollateralValue","inputs":[{"name":"user","type":"address","internalType":"address"}],"outputs":[{"name":"totalCollateralValueInUsd","type":"uint256","internalType":"uint256"}],"stateMutability":"view"},{"type":"function","name":"getAccountCollateralValueForBorrowEther","inputs":[{"name":"user","type":"address","internalType":"address"}],"outputs":[{"name":"totalCollateralValueInUsd","type":"uint256","internalType":"uint256"}],"stateMutability":"view"},{"type":"function","name":"getAccountInformation","inputs":[{"name":"user","type":"address","internalType":"address"}],"outputs":[{"name":"totalDscMinted","type":"uint256","internalType":"uint256"},{"name":"collateralValueInUsd","type":"uint256","internalType":"uint256"}],"stateMutability":"view"},{"type":"function","name":"getAdditionalFeedPrecision","inputs":[],"outputs":[{"name":"","type":"uint256","internalType":"uint256"}],"stateMutability":"pure"},{"type":"function","name":"getBalanceOfWEtherInContract","inputs":[],"outputs":[{"name":"","type":"uint256","internalType":"uint256"}],"stateMutability":"view"},{"type":"function","name":"getBlockTimeNow","inputs":[],"outputs":[{"name":"","type":"uint256","internalType":"uint256"}],"stateMutability":"view"},{"type":"function","name":"getBorrowingFeeRate","inputs":[],"outputs":[{"name":"","type":"uint256","internalType":"uint256"}],"stateMutability":"view"},{"type":"function","name":"getCollateralBalanceOfUser","inputs":[{"name":"user","type":"address","internalType":"address"},{"name":"token","type":"address","internalType":"address"}],"outputs":[{"name":"","type":"uint256","internalType":"uint256"}],"stateMutability":"view"},{"type":"function","name":"getCollateralDepositedForBorrowEther","inputs":[{"name":"user","type":"address","internalType":"address"},{"name":"token","type":"address","internalType":"address"}],"outputs":[{"name":"","type":"uint256","internalType":"uint256"}],"stateMutability":"view"},{"type":"function","name":"getCollateralTokenPriceFeed","inputs":[{"name":"token","type":"address","internalType":"address"}],"outputs":[{"name":"","type":"address","internalType":"address"}],"stateMutability":"view"},{"type":"function","name":"getCollateralTokens","inputs":[],"outputs":[{"name":"","type":"address[]","internalType":"address[]"}],"stateMutability":"view"},{"type":"function","name":"getDSCMintedForInterest","inputs":[{"name":"user","type":"address","internalType":"address"}],"outputs":[{"name":"","type":"uint256","internalType":"uint256"}],"stateMutability":"view"},{"type":"function","name":"getDsc","inputs":[],"outputs":[{"name":"","type":"address","internalType":"address"}],"stateMutability":"view"},{"type":"function","name":"getEndTimeBorrowed","inputs":[{"name":"user","type":"address","internalType":"address"}],"outputs":[{"name":"","type":"uint256","internalType":"uint256"}],"stateMutability":"view"},{"type":"function","name":"getEndTimeSaved","inputs":[{"name":"user","type":"address","internalType":"address"}],"outputs":[{"name":"","type":"uint256","internalType":"uint256"}],"stateMutability":"view"},{"type":"function","name":"getHealthFactor","inputs":[{"name":"user","type":"address","internalType":"address"}],"outputs":[{"name":"","type":"uint256","internalType":"uint256"}],"stateMutability":"view"},{"type":"function","name":"getHealthFactorForBorrowWEther","inputs":[{"name":"user","type":"address","internalType":"address"}],"outputs":[{"name":"","type":"uint256","internalType":"uint256"}],"stateMutability":"view"},{"type":"function","name":"getInterestingRate","inputs":[],"outputs":[{"name":"","type":"uint256","internalType":"uint256"}],"stateMutability":"view"},{"type":"function","name":"getLiquidationBonus","inputs":[],"outputs":[{"name":"","type":"uint256","internalType":"uint256"}],"stateMutability":"pure"},{"type":"function","name":"getLiquidationPrecision","inputs":[],"outputs":[{"name":"","type":"uint256","internalType":"uint256"}],"stateMutability":"pure"},{"type":"function","name":"getLiquidationThreshold","inputs":[],"outputs":[{"name":"","type":"uint256","internalType":"uint256"}],"stateMutability":"pure"},{"type":"function","name":"getMinHealthFactor","inputs":[],"outputs":[{"name":"","type":"uint256","internalType":"uint256"}],"stateMutability":"pure"},{"type":"function","name":"getPrecision","inputs":[],"outputs":[{"name":"","type":"uint256","internalType":"uint256"}],"stateMutability":"pure"},{"type":"function","name":"getTokenAmountFromUsd","inputs":[{"name":"token","type":"address","internalType":"address"},{"name":"usdAmountInWei","type":"uint256","internalType":"uint256"}],"outputs":[{"name":"","type":"uint256","internalType":"uint256"}],"stateMutability":"view"},{"type":"function","name":"getUsdValue","inputs":[{"name":"token","type":"address","internalType":"address"},{"name":"amount","type":"uint256","internalType":"uint256"}],"outputs":[{"name":"","type":"uint256","internalType":"uint256"}],"stateMutability":"view"},{"type":"function","name":"getUtilisationRate","inputs":[],"outputs":[{"name":"","type":"uint256","internalType":"uint256"}],"stateMutability":"view"},{"type":"function","name":"getWEtherBorrowed","inputs":[{"name":"user","type":"address","internalType":"address"}],"outputs":[{"name":"","type":"uint256","internalType":"uint256"}],"stateMutability":"view"},{"type":"function","name":"getWEtherBorrowedInUsd","inputs":[{"name":"user","type":"address","internalType":"address"}],"outputs":[{"name":"","type":"uint256","internalType":"uint256"}],"stateMutability":"view"},{"type":"function","name":"getWEtherSaved","inputs":[{"name":"user","type":"address","internalType":"address"}],"outputs":[{"name":"","type":"uint256","internalType":"uint256"}],"stateMutability":"view"},{"type":"function","name":"liquidate","inputs":[{"name":"collateral","type":"address","internalType":"address"},{"name":"user","type":"address","internalType":"address"},{"name":"debtToCover","type":"uint256","internalType":"uint256"}],"outputs":[],"stateMutability":"nonpayable"},{"type":"function","name":"liquidateForBorrowedWEther","inputs":[{"name":"tokenCollateralDeposited","type":"address","internalType":"address"},{"name":"user","type":"address","internalType":"address"}],"outputs":[],"stateMutability":"nonpayable"},{"type":"function","name":"mintDsc","inputs":[{"name":"amountDscToMint","type":"uint256","internalType":"uint256"}],"outputs":[],"stateMutability":"nonpayable"},{"type":"function","name":"mintDscForOwner","inputs":[{"name":"amountDsc","type":"uint256","internalType":"uint256"}],"outputs":[],"stateMutability":"nonpayable"},{"type":"function","name":"redeemAllCollateralAndReturnWEtherAfter_1_Minute","inputs":[{"name":"tokenCollateralAddress","type":"address","internalType":"address"}],"outputs":[],"stateMutability":"nonpayable"},{"type":"function","name":"redeemAllCollateralAndReturnWEtherAfter_1_Year","inputs":[{"name":"tokenCollateralAddress","type":"address","internalType":"address"}],"outputs":[],"stateMutability":"nonpayable"},{"type":"function","name":"redeemCollateral","inputs":[{"name":"tokenCollateralAddress","type":"address","internalType":"address"},{"name":"amountCollateral","type":"uint256","internalType":"uint256"}],"outputs":[],"stateMutability":"nonpayable"},{"type":"function","name":"redeemCollateralAndReturnWEtherBefore_1_Minute","inputs":[{"name":"tokenCollateralAddress","type":"address","internalType":"address"},{"name":"amountCollateral","type":"uint256","internalType":"uint256"},{"name":"amountWEther","type":"uint256","internalType":"uint256"}],"outputs":[],"stateMutability":"nonpayable"},{"type":"function","name":"redeemCollateralAndReturnWEtherBefore_1_Year","inputs":[{"name":"tokenCollateralAddress","type":"address","internalType":"address"},{"name":"amountCollateral","type":"uint256","internalType":"uint256"},{"name":"amountWEther","type":"uint256","internalType":"uint256"}],"outputs":[],"stateMutability":"nonpayable"},{"type":"function","name":"redeemCollateralForDsc","inputs":[{"name":"tokenCollateralAddress","type":"address","internalType":"address"},{"name":"amountCollateral","type":"uint256","internalType":"uint256"},{"name":"amountDscToBurn","type":"uint256","internalType":"uint256"}],"outputs":[],"stateMutability":"nonpayable"},{"type":"function","name":"redeemSavedWEtherAfter_1_MinuteAndMintDscForInterest","inputs":[{"name":"amount","type":"uint256","internalType":"uint256"}],"outputs":[],"stateMutability":"nonpayable"},{"type":"function","name":"redeemSavedWEtherAfter_1_YearAndMintDscForInterest","inputs":[{"name":"amount","type":"uint256","internalType":"uint256"}],"outputs":[],"stateMutability":"nonpayable"},{"type":"function","name":"savingWEtherFor_1_Minute","inputs":[{"name":"amount","type":"uint256","internalType":"uint256"}],"outputs":[],"stateMutability":"nonpayable"},{"type":"function","name":"savingWEtherFor_1_Year","inputs":[{"name":"amount","type":"uint256","internalType":"uint256"}],"outputs":[],"stateMutability":"nonpayable"},{"type":"event","name":"CollateralDeposited","inputs":[{"name":"user","type":"address","indexed":true,"internalType":"address"},{"name":"token","type":"address","indexed":true,"internalType":"address"},{"name":"amount","type":"uint256","indexed":true,"internalType":"uint256"}],"anonymous":false},{"type":"event","name":"CollateralRedeemed","inputs":[{"name":"redeemFrom","type":"address","indexed":true,"internalType":"address"},{"name":"redeemTo","type":"address","indexed":true,"internalType":"address"},{"name":"token","type":"address","indexed":false,"internalType":"address"},{"name":"amount","type":"uint256","indexed":false,"internalType":"uint256"}],"anonymous":false},{"type":"error","name":"DSCEngine__BreaksHealthFactor","inputs":[{"name":"healthFactorValue","type":"uint256","internalType":"uint256"}]},{"type":"error","name":"DSCEngine__HealthFactorNotImproved","inputs":[]},{"type":"error","name":"DSCEngine__HealthFactorOk","inputs":[]},{"type":"error","name":"DSCEngine__MintFailed","inputs":[]},{"type":"error","name":"DSCEngine__NeedsMoreThanZero","inputs":[]},{"type":"error","name":"DSCEngine__TokenAddressesAndPriceFeedAddressesAmountsDontMatch","inputs":[]},{"type":"error","name":"DSCEngine__TokenNotAllowed","inputs":[{"name":"token","type":"address","internalType":"address"}]},{"type":"error","name":"DSCEngine__TransferFailed","inputs":[]}],"bytecode":{"object":"0x60a0604052600580546001600160a01b031990811673dd13e55209fd76afe204dbda4007c227904f0a81179091556000600e819055600f556010805490911673714a4f22f5473e7186fc3209cc5fbfa6ed46577a1790553480156200006357600080fd5b5060405162002f2d38038062002f2d83398101604081905262000086916200029a565b60016000558151835114620000ae57604051631d8bb3e760e11b815260040160405180910390fd5b60005b8351811015620001a457828181518110620000d057620000d062000316565b602002602001015160016000868481518110620000f157620000f162000316565b60200260200101516001600160a01b03166001600160a01b0316815260200190815260200160002060006101000a8154816001600160a01b0302191690836001600160a01b03160217905550600484828151811062000154576200015462000316565b60209081029190910181015182546001810184556000938452919092200180546001600160a01b0319166001600160a01b03909216919091179055806200019b816200032c565b915050620000b1565b506001600160a01b031660805250620003549050565b634e487b7160e01b600052604160045260246000fd5b80516001600160a01b0381168114620001e857600080fd5b919050565b600082601f830112620001ff57600080fd5b815160206001600160401b03808311156200021e576200021e620001ba565b8260051b604051601f19603f83011681018181108482111715620002465762000246620001ba565b6040529384528581018301938381019250878511156200026557600080fd5b83870191505b848210156200028f576200027f82620001d0565b835291830191908301906200026b565b979650505050505050565b600080600060608486031215620002b057600080fd5b83516001600160401b0380821115620002c857600080fd5b620002d687838801620001ed565b94506020860151915080821115620002ed57600080fd5b50620002fc86828701620001ed565b9250506200030d60408501620001d0565b90509250925092565b634e487b7160e01b600052603260045260246000fd5b6000600182016200034d57634e487b7160e01b600052601160045260246000fd5b5060010190565b608051612b9a62000393600039600081816106bb0152818161106801528181611a3a01528181611aec015281816123ca01526124950152612b9a6000f3fe608060405234801561001057600080fd5b50600436106102f15760003560e01c80638c1ae6c81161019d578063cad54860116100e9578063e2f62ca0116100a2578063e90db8a31161007c578063e90db8a31461070d578063f419ea9c14610720578063f687660814610733578063fe6bcd7c1461074657600080fd5b8063e2f62ca0146106df578063e520df2e146106e7578063e6fb7f82146106fa57600080fd5b8063cad5486014610639578063d3958b6e14610662578063d464760314610675578063da74a26a1461069e578063dd82ac18146106a6578063deb8e018146106b957600080fd5b8063a5d5db0c11610156578063b58eb63f11610130578063b58eb63f146105eb578063bb0351ed14610600578063c660d11214610613578063c9b7c3271461062657600080fd5b8063a5d5db0c146105b2578063afea2e48146105c5578063b20020ae146105d857600080fd5b80638c1ae6c8146105605780638f63d6671461056e578063942039bd146105795780639486b4c41461058c5780639670c0bc146105605780639acd81b31461059f57600080fd5b8063519899c31161025c5780637816a716116102155780637d1a4450116101ef5780637d1a445014610529578063823f77c31461053c578063839145401461054257806389a6c2361461054d57600080fd5b80637816a716146104d05780637be564fc146104f95780637c06d3331461052157600080fd5b8063519899c31461043a5780635810c1fd1461044d57806359aa9e72146104605780635e941a8a1461046757806362ca1206146104a05780636c8102c0146104c957600080fd5b806327646b81116102ae57806327646b81146103b95780632b950b15146103c157806331b14ed1146103d457806331e92b83146103e75780634ae9b8bc146104205780634fbb80b01461042757600080fd5b806301f72884146102f65780630f4081101461031c57806311aacaed14610345578063198a8f651461035a5780631c08adda1461036257806326c01303146103a6575b600080fd5b6103096103043660046127c5565b610759565b6040519081526020015b60405180910390f35b61030961032a366004612803565b6001600160a01b031660009081526009602052604090205490565b610358610353366004612803565b61076e565b005b610309603c81565b61038e610370366004612803565b6001600160a01b039081166000908152600160205260409020541690565b6040516001600160a01b039091168152602001610313565b6103586103b436600461281e565b6107d5565b6103096108c7565b6103096103cf366004612803565b6108ed565b6103586103e236600461285a565b6108f8565b6103096103f536600461288d565b6001600160a01b03918216600090815260026020908152604080832093909416825291909152205490565b6032610309565b61035861043536600461285a565b610988565b6103586104483660046128c0565b6109ae565b61035861045b3660046128c0565b610a96565b600a610309565b61030961047536600461288d565b6001600160a01b039182166000908152600d6020908152604080832093909416825291909152205490565b6103096104ae366004612803565b6001600160a01b03166000908152600a602052604090205490565b6064610309565b6103096104de366004612803565b6001600160a01b03166000908152600b602052604090205490565b61050c610507366004612803565b610aa2565b60408051928352602083019190915201610313565b610309610ab7565b610309610537366004612803565b610ae2565b42610309565b6103096301e1338081565b61035861055b3660046128c0565b610b6a565b670de0b6b3a7640000610309565b6402540be400610309565b6103586105873660046128c0565b610b91565b61035861059a36600461285a565b610b9c565b6103586105ad3660046128d9565b610c18565b6103586105c03660046128d9565b610ca7565b6103096105d33660046128d9565b610e28565b6103586105e636600461285a565b610ef8565b6105f3610f06565b6040516103139190612903565b61030961060e366004612803565b610f68565b6103096106213660046128d9565b610fea565b6103586106343660046128c0565b610ff6565b610309610647366004612803565b6001600160a01b031660009081526006602052604090205490565b610358610670366004612803565b611112565b610309610683366004612803565b6001600160a01b031660009081526007602052604090205490565b610309611168565b6103586106b436600461288d565b611172565b7f000000000000000000000000000000000000000000000000000000000000000061038e565b6103096111cc565b6103096106f5366004612803565b6111d6565b6103586107083660046128c0565b611200565b61035861071b36600461285a565b611283565b61035861072e36600461285a565b611296565b6103586107413660046128c0565b611324565b610309610754366004612803565b61135a565b60006107658383611365565b90505b92915050565b336000908152600b60205260409020544210156107a65760405162461bcd60e51b815260040161079d90612950565b60405180910390fd5b336000908152600b60205260408120546107c090426129ac565b90506107d182826301e133806113b8565b5050565b80806000036107f75760405163cb1d3f7d60e01b815260040160405180910390fd5b6107ff61185f565b600061080a846118b8565b9050670de0b6b3a764000081106108345760405163032c072f60e41b815260040160405180910390fd5b60006108408685610e28565b905060006064610851600a846129bf565b61085b91906129d6565b90506108728761086b83856129f8565b88336118d4565b61087d8587336119f3565b6000610888876118b8565b90508381116108aa576040516303e141b160e51b815260040160405180910390fd5b6108b333611b56565b505050506108c16001600055565b50505050565b600060646108d3611b8f565b6108de9060696129bf565b6108e891906129d6565b905090565b600061076882611c65565b336000908152600b60205260409020544211156109765760405162461bcd60e51b815260206004820152603660248201527f445343456e67696e653a2043616e6e6f742072656465656d2062792074686973604482015275206d6574686f642061667465722031206d696e75746560501b606482015260840161079d565b6109838383833333611c73565b505050565b610993603c426129f8565b336000908152600b6020526040902055610983838383611f01565b80806000036109d05760405163cb1d3f7d60e01b815260040160405180910390fd5b6005546001600160a01b03908116600081815260016020526040902054909116610a185760405163cf39359560e01b81526001600160a01b038216600482015260240161079d565b33600090815260086020908152604080832054600790925290912054421015610a535760405162461bcd60e51b815260040161079d90612a0b565b610a5c8461213d565b6005546108c190620186a0908390610a7d906001600160a01b0316886122cd565b610a8791906129bf565b610a9191906129d6565b61238c565b610a9f81612469565b50565b600080610aae8361252c565b91509150915091565b600080600e546064600f54610acc91906129bf565b610ad8906103e86129bf565b61076891906129d6565b6000805b600454811015610b6457600060048281548110610b0557610b05612a53565b60009182526020808320909101546001600160a01b03878116845260028352604080852091909216808552925290912054909150610b4382826122cd565b610b4d90856129f8565b935050508080610b5c90612a69565b915050610ae6565b50919050565b610b786301e13380426129f8565b33600090815260076020526040902055610a9f81612556565b610b78603c426129f8565b336000908152600b60205260409020544211156109765760405162461bcd60e51b815260206004820152603460248201527f445343456e67696e653a2043616e6e6f742072656465656d20627920746869736044820152731036b2ba3437b21030b33a32b91018903cb2b0b960611b606482015260840161079d565b8080600003610c3a5760405163cb1d3f7d60e01b815260040160405180910390fd5b610c4261185f565b6001600160a01b03808416600090815260016020526040902054849116610c875760405163cf39359560e01b81526001600160a01b038216600482015260240161079d565b610c93848433336118d4565b610c9c33611b56565b506109836001600055565b8080600003610cc95760405163cb1d3f7d60e01b815260040160405180910390fd5b610cd161185f565b6001600160a01b03808416600090815260016020526040902054849116610d165760405163cf39359560e01b81526001600160a01b038216600482015260240161079d565b3360009081526002602090815260408083206001600160a01b038816845290915281208054859290610d499084906129f8565b909155505060405183906001600160a01b0386169033907ff1c0dd7e9b98bbff859029005ef89b127af049cd18df1a8d79f0b7e019911e5690600090a46040516323b872dd60e01b81526000906001600160a01b038616906323b872dd90610db990339030908990600401612a82565b6020604051808303816000875af1158015610dd8573d6000803e3d6000fd5b505050506040513d601f19601f82011682018060405250810190610dfc9190612aa6565b905080610e1c57604051634dc34d1760e01b815260040160405180910390fd5b50506109836001600055565b6001600160a01b038281166000908152600160205260408082205490516315d0e4b560e11b81529216600483018190529091829073__$1f06ac8d622ce42796cee98ba1044ce165$__90632ba1c96a9060240160a060405180830381865af4158015610e98573d6000803e3d6000fd5b505050506040513d601f19601f82011682018060405250810190610ebc9190612ae2565b5050509150506402540be40081610ed391906129bf565b610ee5670de0b6b3a7640000866129bf565b610eef91906129d6565b95945050505050565b6109936301e13380426129f8565b60606004805480602002602001604051908101604052809291908181526020018280548015610f5e57602002820191906000526020600020905b81546001600160a01b03168152600190910190602001808311610f40575b5050505050905090565b6000805b600454811015610b6457600060048281548110610f8b57610f8b612a53565b60009182526020808320909101546001600160a01b038781168452600d8352604080852091909216808552925290912054909150610fc982826122cd565b610fd390856129f8565b935050508080610fe290612a69565b915050610f6c565b600061076583836122cd565b80806000036110185760405163cb1d3f7d60e01b815260040160405180910390fd5b61102061185f565b336000908152600360205260408120805484929061103f9084906129f8565b9091555061104e905033611b56565b6040516340c10f1960e01b81526000906001600160a01b037f000000000000000000000000000000000000000000000000000000000000000016906340c10f199061109f9033908790600401612b32565b6020604051808303816000875af11580156110be573d6000803e3d6000fd5b505050506040513d601f19601f820116820180604052508101906110e29190612aa6565b9050600181151514611107576040516330eb0fc960e01b815260040160405180910390fd5b506107d16001600055565b336000908152600b602052604090205442116111405760405162461bcd60e51b815260040161079d90612a0b565b336000908152600b602052604081205461115a90426129ac565b90506107d18282603c6113b8565b60006108e8611b8f565b61117a61185f565b600061118582611c65565b9050670de0b6b3a764000081106111af5760405163032c072f60e41b815260040160405180910390fd5b60006111c084826301e133806113b8565b50506107d16001600055565b60006108e861268c565b6005546001600160a01b038281166000908152600a602052604081205490926107689216906122cd565b80806000036112225760405163cb1d3f7d60e01b815260040160405180910390fd5b6005546001600160a01b0390811660008181526001602052604090205490911661126a5760405163cf39359560e01b81526001600160a01b038216600482015260240161079d565b33600090815260086020526040902054610a5c846126f9565b61128d8383610ca7565b61098381610ff6565b81806000036112b85760405163cb1d3f7d60e01b815260040160405180910390fd5b6001600160a01b038085166000908152600160205260409020548591166112fd5760405163cf39359560e01b81526001600160a01b038216600482015260240161079d565b6113088333336119f3565b611314858533336118d4565b61131d33611b56565b5050505050565b80806000036113465760405163cb1d3f7d60e01b815260040160405180910390fd5b6113518233336119f3565b6107d133611b56565b6000610768826118b8565b6000826000036113785750600019610768565b600060646113876032856129bf565b61139191906129d6565b9050836113a6670de0b6b3a7640000836129bf565b6113b091906129d6565b949350505050565b336000908152600d602090815260408083206001600160a01b0387168452909152812054906113e783856129d6565b6113f29060016129f8565b905060008160010361141857606461140b8460576129bf565b61141591906129d6565b90505b816002036114465761271061142e8460576129bf565b6114399060576129bf565b61144391906129d6565b90505b8160030361148057620f424061145d8460576129bf565b6114689060576129bf565b6114739060576129bf565b61147d91906129d6565b90505b816004036114c6576305f5e1006114988460576129bf565b6114a39060576129bf565b6114ae9060576129bf565b6114b99060576129bf565b6114c391906129d6565b90505b81600503611518576402540be4006114df8460576129bf565b6114ea9060576129bf565b6114f59060576129bf565b6115009060576129bf565b61150b9060576129bf565b61151591906129d6565b90505b816006036115755764e8d4a510006115318460576129bf565b61153c9060576129bf565b6115479060576129bf565b6115529060576129bf565b61155d9060576129bf565b6115689060576129bf565b61157291906129d6565b90505b816007036115de57655af3107a400061158f8460576129bf565b61159a9060576129bf565b6115a59060576129bf565b6115b09060576129bf565b6115bb9060576129bf565b6115c69060576129bf565b6115d19060576129bf565b6115db91906129d6565b90505b8160080361165357662386f26fc100006115f98460576129bf565b6116049060576129bf565b61160f9060576129bf565b61161a9060576129bf565b6116259060576129bf565b6116309060576129bf565b61163b9060576129bf565b6116469060576129bf565b61165091906129d6565b90505b816009036116d457670de0b6b3a764000061166f8460576129bf565b61167a9060576129bf565b6116859060576129bf565b6116909060576129bf565b61169b9060576129bf565b6116a69060576129bf565b6116b19060576129bf565b6116bc9060576129bf565b6116c79060576129bf565b6116d191906129d6565b90505b600a8211156116e1575060005b336000818152600a60205260408082205460055491516323b872dd60e01b815290936001600160a01b03909216916323b872dd91611726919030908790600401612a82565b6020604051808303816000875af1158015611745573d6000803e3d6000fd5b505050506040513d601f19601f820116820180604052508101906117699190612aa6565b90508061178957604051634dc34d1760e01b815260040160405180910390fd5b60405163a9059cbb60e01b81526000906001600160a01b038a169063a9059cbb906117ba9033908890600401612b32565b6020604051808303816000875af11580156117d9573d6000803e3d6000fd5b505050506040513d601f19601f820116820180604052508101906117fd9190612aa6565b90508061181d57604051634dc34d1760e01b815260040160405180910390fd5b5050336000818152600d602090815260408083206001600160a01b039b909b168352998152898220829055918152600a90915296872096909655505050505050565b6002600054036118b15760405162461bcd60e51b815260206004820152601f60248201527f5265656e7472616e637947756172643a207265656e7472616e742063616c6c00604482015260640161079d565b6002600055565b60008060006118c68461252c565b915091506113b08282611365565b6001600160a01b0380831660009081526002602090815260408083209388168352929052908120805485929061190b9084906129ac565b92505081905550806001600160a01b0316826001600160a01b03167fb292db12b8dfa23b760ee5e3bd1d3be184cd8f0eeeacd27ce120d4de4e4721f68686604051611957929190612b32565b60405180910390a360405163a9059cbb60e01b81526000906001600160a01b0386169063a9059cbb906119909085908890600401612b32565b6020604051808303816000875af11580156119af573d6000803e3d6000fd5b505050506040513d601f19601f820116820180604052508101906119d39190612aa6565b90508061131d57604051634dc34d1760e01b815260040160405180910390fd5b6001600160a01b03821660009081526003602052604081208054859290611a1b9084906129ac565b90915550506040516323b872dd60e01b81526000906001600160a01b037f000000000000000000000000000000000000000000000000000000000000000016906323b872dd90611a7390859030908990600401612a82565b6020604051808303816000875af1158015611a92573d6000803e3d6000fd5b505050506040513d601f19601f82011682018060405250810190611ab69190612aa6565b905080611ad657604051634dc34d1760e01b815260040160405180910390fd5b604051630852cd8d60e31b8152600481018590527f00000000000000000000000000000000000000000000000000000000000000006001600160a01b0316906342966c6890602401600060405180830381600087803b158015611b3857600080fd5b505af1158015611b4c573d6000803e3d6000fd5b5050505050505050565b6000611b61826118b8565b9050670de0b6b3a76400008110156107d15760405163e580cc6160e01b81526004810182905260240161079d565b600080600e546064600f54611ba491906129bf565b611bb0906103e86129bf565b611bba91906129d6565b9050611bc960506103e86129bf565b8111611c065760006005611bde6050846129d6565b611be891906129bf565b611bf560016103e86129bf565b611bff91906129f8565b9392505050565b6000600a611c16605060646129ac565b611c2360506103e86129bf565b611c2d90856129ac565b611c3791906129d6565b611c4191906129bf565b611c4e60056103e86129bf565b611c5b60016103e86129bf565b611bf591906129f8565b60008060006118c6846127a3565b8380600003611c955760405163cb1d3f7d60e01b815260040160405180910390fd5b611c9d61185f565b6005546001600160a01b03908116600081815260016020526040902054909116611ce55760405163cf39359560e01b81526001600160a01b038216600482015260240161079d565b6001600160a01b0384166000908152600a602052604081208054879290611d0d9084906129ac565b92505081905550826001600160a01b0316846001600160a01b03167fb292db12b8dfa23b760ee5e3bd1d3be184cd8f0eeeacd27ce120d4de4e4721f68989604051611d59929190612b32565b60405180910390a36001600160a01b038085166000908152600d60209081526040808320938b1683529290529081208054889290611d989084906129ac565b9250508190555084600f6000828254611db191906129ac565b90915550611dc09050836127ba565b6005546040516323b872dd60e01b81526000916001600160a01b0316906323b872dd90611df590889030908b90600401612a82565b6020604051808303816000875af1158015611e14573d6000803e3d6000fd5b505050506040513d601f19601f82011682018060405250810190611e389190612aa6565b905080611e5857604051634dc34d1760e01b815260040160405180910390fd5b60405163a9059cbb60e01b81526000906001600160a01b038a169063a9059cbb90611e899088908c90600401612b32565b6020604051808303816000875af1158015611ea8573d6000803e3d6000fd5b505050506040513d601f19601f82011682018060405250810190611ecc9190612aa6565b905080611eec57604051634dc34d1760e01b815260040160405180910390fd5b505050611ef96001600055565b505050505050565b605a600e546064611f1291906129bf565b611f1c91906129d6565b8110611f795760405162461bcd60e51b815260206004820152602660248201527f445343456e67696e653a204e6f7420656e6f7567682057457468657220696e20604482015265736176696e6760d01b606482015260840161079d565b6000611f83611b8f565b90506000620186a0611f9583826129f8565b611f9f90846129bf565b611fa991906129d6565b336000908152600c602052604090208190559050620186a0611fcb82826129ac565b611fd590856129bf565b611fdf91906129d6565b336000908152600a602052604081208054909190611ffe9084906129f8565b9091555050336000908152600d602090815260408083206001600160a01b0389168452909152812080548692906120369084906129f8565b90915550620186a0905061204a82826129ac565b61205490856129bf565b61205e91906129d6565b600f600082825461206f91906129f8565b9091555061207e9050336127ba565b6120888585610ca7565b61209133611b56565b6005546000906001600160a01b031663a9059cbb3360646120b388605e6129bf565b6120bd91906129d6565b6040518363ffffffff1660e01b81526004016120da929190612b32565b6020604051808303816000875af11580156120f9573d6000803e3d6000fd5b505050506040513d601f19601f8201168201806040525081019061211d9190612aa6565b905080611ef957604051634dc34d1760e01b815260040160405180910390fd5b808060000361215f5760405163cb1d3f7d60e01b815260040160405180910390fd5b61216761185f565b6005546001600160a01b039081166000818152600160205260409020549091166121af5760405163cf39359560e01b81526001600160a01b038216600482015260240161079d565b33600090815260066020526040812080548592906121ce9084906129ac565b9250508190555082600e60008282546121e791906129ac565b9091555050600554604051339182917fb292db12b8dfa23b760ee5e3bd1d3be184cd8f0eeeacd27ce120d4de4e4721f69161222f916001600160a01b03909116908890612b32565b60405180910390a360055460405163a9059cbb60e01b81526000916001600160a01b03169063a9059cbb9061226a9033908890600401612b32565b6020604051808303816000875af1158015612289573d6000803e3d6000fd5b505050506040513d601f19601f820116820180604052508101906122ad9190612aa6565b9050806111c057604051634dc34d1760e01b815260040160405180910390fd5b6001600160a01b038281166000908152600160205260408082205490516315d0e4b560e11b81529216600483018190529091829073__$1f06ac8d622ce42796cee98ba1044ce165$__90632ba1c96a9060240160a060405180830381865af415801561233d573d6000803e3d6000fd5b505050506040513d601f19601f820116820180604052508101906123619190612ae2565b505050915050670de0b6b3a7640000846402540be4008361238291906129bf565b610ee591906129bf565b33600090815260096020526040812080548392906123ab9084906129f8565b90915550506040516340c10f1960e01b81526000906001600160a01b037f000000000000000000000000000000000000000000000000000000000000000016906340c10f19906124019033908690600401612b32565b6020604051808303816000875af1158015612420573d6000803e3d6000fd5b505050506040513d601f19601f820116820180604052508101906124449190612aa6565b90506001811515146107d1576040516330eb0fc960e01b815260040160405180910390fd5b6010546001600160a01b03163303612513576010546040516340c10f1960e01b81526001600160a01b037f00000000000000000000000000000000000000000000000000000000000000008116926340c10f19926124d09291909116908590600401612b32565b6020604051808303816000875af11580156124ef573d6000803e3d6000fd5b505050506040513d601f19601f820116820180604052508101906107d19190612aa6565b6040516330eb0fc960e01b815260040160405180910390fd5b6001600160a01b0381166000908152600360205260408120549061254f83610ae2565b9050915091565b80806000036125785760405163cb1d3f7d60e01b815260040160405180910390fd5b61258061185f565b6005546001600160a01b039081166000818152600160205260409020549091166125c85760405163cf39359560e01b81526001600160a01b038216600482015260240161079d565b33600090815260066020526040812080548592906125e79084906129f8565b9250508190555082600e600082825461260091906129f8565b9091555061260e9050611b8f565b3360008181526008602052604080822093909355600554925186936001600160a01b031692917ff1c0dd7e9b98bbff859029005ef89b127af049cd18df1a8d79f0b7e019911e5691a46005546040516323b872dd60e01b81526000916001600160a01b0316906323b872dd9061226a90339030908990600401612a82565b6005546040516370a0823160e01b81523060048201526000916001600160a01b0316906370a0823190602401602060405180830381865afa1580156126d5573d6000803e3d6000fd5b505050506040513d601f19601f820116820180604052508101906108e89190612b4b565b808060000361271b5760405163cb1d3f7d60e01b815260040160405180910390fd5b61272361185f565b6005546001600160a01b0390811660008181526001602052604090205490911661276b5760405163cf39359560e01b81526001600160a01b038216600482015260240161079d565b3360009081526007602052604090205442101561279a5760405162461bcd60e51b815260040161079d90612950565b6111078361213d565b6000806127af836111d6565b915061254f83610f68565b6000611b6182611c65565b600080604083850312156127d857600080fd5b50508035926020909101359150565b80356001600160a01b03811681146127fe57600080fd5b919050565b60006020828403121561281557600080fd5b610765826127e7565b60008060006060848603121561283357600080fd5b61283c846127e7565b925061284a602085016127e7565b9150604084013590509250925092565b60008060006060848603121561286f57600080fd5b612878846127e7565b95602085013595506040909401359392505050565b600080604083850312156128a057600080fd5b6128a9836127e7565b91506128b7602084016127e7565b90509250929050565b6000602082840312156128d257600080fd5b5035919050565b600080604083850312156128ec57600080fd5b6128f5836127e7565b946020939093013593505050565b6020808252825182820181905260009190848201906040850190845b818110156129445783516001600160a01b03168352928401929184019160010161291f565b50909695505050505050565b60208082526026908201527f445343456e67696e653a2043616e6e6f742072656465656d206265666f72652060408201526518903cb2b0b960d11b606082015260800190565b634e487b7160e01b600052601160045260246000fd5b8181038181111561076857610768612996565b808202811582820484141761076857610768612996565b6000826129f357634e487b7160e01b600052601260045260246000fd5b500490565b8082018082111561076857610768612996565b60208082526028908201527f445343456e67696e653a2043616e6e6f742072656465656d206265666f72652060408201526731206d696e75746560c01b606082015260800190565b634e487b7160e01b600052603260045260246000fd5b600060018201612a7b57612a7b612996565b5060010190565b6001600160a01b039384168152919092166020820152604081019190915260600190565b600060208284031215612ab857600080fd5b81518015158114611bff57600080fd5b805169ffffffffffffffffffff811681146127fe57600080fd5b600080600080600060a08688031215612afa57600080fd5b612b0386612ac8565b9450602086015193506040860151925060608601519150612b2660808701612ac8565b90509295509295909350565b6001600160a01b03929092168252602082015260400190565b600060208284031215612b5d57600080fd5b505191905056fea2646970667358221220480074948e4a4d7b631038c6cdfd52d9ea7a502c0fc05bea9344a40021cf21cc64736f6c63430008130033","linkReferences":{"src/libraries/OracleLib.sol":{"OracleLib":[{"start":4593,"length":20},{"start":9878,"length":20}]}}},"methodIdentifiers":{"MINUTE()":"198a8f65","YEAR()":"83914540","burnDsc(uint256)":"f6876608","calculateHealthFactor(uint256,uint256)":"01f72884","depositCollateral(address,uint256)":"a5d5db0c","depositCollateralAndBorrowWEther_1_Minute(address,uint256,uint256)":"4fbb80b0","depositCollateralAndBorrowWEther_1_Year(address,uint256,uint256)":"b20020ae","depositCollateralAndMintDsc(address,uint256,uint256)":"e90db8a3","getAccountCollateralValue(address)":"7d1a4450","getAccountCollateralValueForBorrowEther(address)":"bb0351ed","getAccountInformation(address)":"7be564fc","getAdditionalFeedPrecision()":"8f63d667","getBalanceOfWEtherInContract()":"e2f62ca0","getBlockTimeNow()":"823f77c3","getBorrowingFeeRate()":"27646b81","getCollateralBalanceOfUser(address,address)":"31e92b83","getCollateralDepositedForBorrowEther(address,address)":"5e941a8a","getCollateralTokenPriceFeed(address)":"1c08adda","getCollateralTokens()":"b58eb63f","getDSCMintedForInterest(address)":"0f408110","getDsc()":"deb8e018","getEndTimeBorrowed(address)":"7816a716","getEndTimeSaved(address)":"d4647603","getHealthFactor(address)":"fe6bcd7c","getHealthFactorForBorrowWEther(address)":"2b950b15","getInterestingRate()":"da74a26a","getLiquidationBonus()":"59aa9e72","getLiquidationPrecision()":"6c8102c0","getLiquidationThreshold()":"4ae9b8bc","getMinHealthFactor()":"8c1ae6c8","getPrecision()":"9670c0bc","getTokenAmountFromUsd(address,uint256)":"afea2e48","getUsdValue(address,uint256)":"c660d112","getUtilisationRate()":"7c06d333","getWEtherBorrowed(address)":"62ca1206","getWEtherBorrowedInUsd(address)":"e520df2e","getWEtherSaved(address)":"cad54860","liquidate(address,address,uint256)":"26c01303","liquidateForBorrowedWEther(address,address)":"dd82ac18","mintDsc(uint256)":"c9b7c327","mintDscForOwner(uint256)":"5810c1fd","redeemAllCollateralAndReturnWEtherAfter_1_Minute(address)":"d3958b6e","redeemAllCollateralAndReturnWEtherAfter_1_Year(address)":"11aacaed","redeemCollateral(address,uint256)":"9acd81b3","redeemCollateralAndReturnWEtherBefore_1_Minute(address,uint256,uint256)":"31b14ed1","redeemCollateralAndReturnWEtherBefore_1_Year(address,uint256,uint256)":"9486b4c4","redeemCollateralForDsc(address,uint256,uint256)":"f419ea9c","redeemSavedWEtherAfter_1_MinuteAndMintDscForInterest(uint256)":"519899c3","redeemSavedWEtherAfter_1_YearAndMintDscForInterest(uint256)":"e6fb7f82","savingWEtherFor_1_Minute(uint256)":"942039bd","savingWEtherFor_1_Year(uint256)":"89a6c236"},"id":30}